{
  "contractName": "Marketplace",
  "abi": [
    {
      "inputs": [],
      "stateMutability": "nonpayable",
      "type": "constructor"
    },
    {
      "anonymous": false,
      "inputs": [
        {
          "indexed": false,
          "internalType": "uint256",
          "name": "id",
          "type": "uint256"
        },
        {
          "indexed": false,
          "internalType": "string",
          "name": "name",
          "type": "string"
        },
        {
          "indexed": false,
          "internalType": "uint256",
          "name": "price",
          "type": "uint256"
        },
        {
          "indexed": false,
          "internalType": "address",
          "name": "owner",
          "type": "address"
        },
        {
          "indexed": false,
          "internalType": "bool",
          "name": "purchased",
          "type": "bool"
        }
      ],
      "name": "ProductCreated",
      "type": "event"
    },
    {
      "anonymous": false,
      "inputs": [
        {
          "indexed": false,
          "internalType": "uint256",
          "name": "id",
          "type": "uint256"
        },
        {
          "indexed": false,
          "internalType": "string",
          "name": "name",
          "type": "string"
        },
        {
          "indexed": false,
          "internalType": "uint256",
          "name": "price",
          "type": "uint256"
        },
        {
          "indexed": false,
          "internalType": "address payable",
          "name": "owner",
          "type": "address"
        },
        {
          "indexed": false,
          "internalType": "bool",
          "name": "purchased",
          "type": "bool"
        }
      ],
      "name": "ProductPurchased",
      "type": "event"
    },
    {
      "inputs": [],
      "name": "name",
      "outputs": [
        {
          "internalType": "string",
          "name": "",
          "type": "string"
        }
      ],
      "stateMutability": "view",
      "type": "function",
      "constant": true
    },
    {
      "inputs": [
        {
          "internalType": "uint256",
          "name": "",
          "type": "uint256"
        }
      ],
      "name": "products",
      "outputs": [
        {
          "internalType": "uint256",
          "name": "id",
          "type": "uint256"
        },
        {
          "internalType": "string",
          "name": "name",
          "type": "string"
        },
        {
          "internalType": "uint256",
          "name": "price",
          "type": "uint256"
        },
        {
          "internalType": "address payable",
          "name": "owner",
          "type": "address"
        },
        {
          "internalType": "bool",
          "name": "purchased",
          "type": "bool"
        }
      ],
      "stateMutability": "view",
      "type": "function",
      "constant": true
    },
    {
      "inputs": [],
      "name": "productsCount",
      "outputs": [
        {
          "internalType": "uint256",
          "name": "",
          "type": "uint256"
        }
      ],
      "stateMutability": "view",
      "type": "function",
      "constant": true
    },
    {
      "inputs": [
        {
          "internalType": "uint256",
          "name": "_id",
          "type": "uint256"
        }
      ],
      "name": "buyProduct",
      "outputs": [],
      "stateMutability": "payable",
      "type": "function",
      "payable": true
    },
    {
      "inputs": [
        {
          "internalType": "string",
          "name": "_name",
          "type": "string"
        },
        {
          "internalType": "uint256",
          "name": "_price",
          "type": "uint256"
        }
      ],
      "name": "registerProduct",
      "outputs": [],
      "stateMutability": "nonpayable",
      "type": "function"
    }
  ],
  "bytecode": "0x608060405260006001553480156200001657600080fd5b506040518060400160405280601581526020017f4c616b736879612773204d61726b6574706c616365000000000000000000000081525060029080519060200190620000649291906200006b565b506200017f565b82805462000079906200014a565b90600052602060002090601f0160209004810192826200009d5760008555620000e9565b82601f10620000b857805160ff1916838001178555620000e9565b82800160010185558215620000e9579182015b82811115620000e8578251825591602001919060010190620000cb565b5b509050620000f89190620000fc565b5090565b5b8082111562000117576000816000905550600101620000fd565b5090565b7f4e487b7100000000000000000000000000000000000000000000000000000000600052602260045260246000fd5b600060028204905060018216806200016357607f821691505b6020821081036200017957620001786200011b565b5b50919050565b610f47806200018f6000396000f3fe60806040526004361061004a5760003560e01c806306fdde031461004f5780637acc0b201461007a5780638642269e146100bb5780638c96091b146100d7578063e0df7bb614610100575b600080fd5b34801561005b57600080fd5b5061006461012b565b6040516100719190610933565b60405180910390f35b34801561008657600080fd5b506100a1600480360381019061009c919061099f565b6101b9565b6040516100b2959493929190610a37565b60405180910390f35b6100d560048036038101906100d0919061099f565b6102a4565b005b3480156100e357600080fd5b506100fe60048036038101906100f99190610bc6565b610687565b005b34801561010c57600080fd5b506101156107f1565b6040516101229190610c22565b60405180910390f35b6002805461013890610c6c565b80601f016020809104026020016040519081016040528092919081815260200182805461016490610c6c565b80156101b15780601f10610186576101008083540402835291602001916101b1565b820191906000526020600020905b81548152906001019060200180831161019457829003601f168201915b505050505081565b60006020528060005260406000206000915090508060000154908060010180546101e290610c6c565b80601f016020809104026020016040519081016040528092919081815260200182805461020e90610c6c565b801561025b5780601f106102305761010080835404028352916020019161025b565b820191906000526020600020905b81548152906001019060200180831161023e57829003601f168201915b5050505050908060020154908060030160009054906101000a900473ffffffffffffffffffffffffffffffffffffffff16908060030160149054906101000a900460ff16905085565b60008060008381526020019081526020016000206040518060a0016040529081600082015481526020016001820180546102dd90610c6c565b80601f016020809104026020016040519081016040528092919081815260200182805461030990610c6c565b80156103565780601f1061032b57610100808354040283529160200191610356565b820191906000526020600020905b81548152906001019060200180831161033957829003601f168201915b50505050508152602001600282015481526020016003820160009054906101000a900473ffffffffffffffffffffffffffffffffffffffff1673ffffffffffffffffffffffffffffffffffffffff1673ffffffffffffffffffffffffffffffffffffffff1681526020016003820160149054906101000a900460ff16151515158152505090506000816060015190506000831180156103f757506001548311155b61040057600080fd5b8160400151341015610447576040517f08c379a000000000000000000000000000000000000000000000000000000000815260040161043e90610ce9565b60405180910390fd5b8073ffffffffffffffffffffffffffffffffffffffff163373ffffffffffffffffffffffffffffffffffffffff16036104b5576040517f08c379a00000000000000000000000000000000000000000000000000000000081526004016104ac90610d55565b60405180910390fd5b8160800151156104fa576040517f08c379a00000000000000000000000000000000000000000000000000000000081526004016104f190610dc1565b60405180910390fd5b33826060019073ffffffffffffffffffffffffffffffffffffffff16908173ffffffffffffffffffffffffffffffffffffffff168152505060018260800190151590811515815250508160008085815260200190815260200160002060008201518160000155602082015181600101908051906020019061057c9291906107f7565b506040820151816002015560608201518160030160006101000a81548173ffffffffffffffffffffffffffffffffffffffff021916908373ffffffffffffffffffffffffffffffffffffffff16021790555060808201518160030160146101000a81548160ff0219169083151502179055509050508073ffffffffffffffffffffffffffffffffffffffff166108fc349081150290604051600060405180830381858888f19350505050158015610637573d6000803e3d6000fd5b507f79558d0d7d4d900e2f15c4cc0a665f1acdbe415e44de900ecdd1e5bf12b56f4e6001548360200151846040015133600160405161067a959493929190610a37565b60405180910390a1505050565b600082511161069557600080fd5b600081116106a257600080fd5b600160008154809291906106b590610e10565b91905055506040518060a0016040528060015481526020018381526020018281526020013373ffffffffffffffffffffffffffffffffffffffff1681526020016000151581525060008060015481526020019081526020016000206000820151816000015560208201518160010190805190602001906107369291906107f7565b506040820151816002015560608201518160030160006101000a81548173ffffffffffffffffffffffffffffffffffffffff021916908373ffffffffffffffffffffffffffffffffffffffff16021790555060808201518160030160146101000a81548160ff0219169083151502179055509050507fbc59c0c8165864dcceb377dd07d8f431d4303f8e501cb0a0374a10cc68d7183660015483833360006040516107e5959493929190610eb7565b60405180910390a15050565b60015481565b82805461080390610c6c565b90600052602060002090601f016020900481019282610825576000855561086c565b82601f1061083e57805160ff191683800117855561086c565b8280016001018555821561086c579182015b8281111561086b578251825591602001919060010190610850565b5b509050610879919061087d565b5090565b5b8082111561089657600081600090555060010161087e565b5090565b600081519050919050565b600082825260208201905092915050565b60005b838110156108d45780820151818401526020810190506108b9565b838111156108e3576000848401525b50505050565b6000601f19601f8301169050919050565b60006109058261089a565b61090f81856108a5565b935061091f8185602086016108b6565b610928816108e9565b840191505092915050565b6000602082019050818103600083015261094d81846108fa565b905092915050565b6000604051905090565b600080fd5b600080fd5b6000819050919050565b61097c81610969565b811461098757600080fd5b50565b60008135905061099981610973565b92915050565b6000602082840312156109b5576109b461095f565b5b60006109c38482850161098a565b91505092915050565b6109d581610969565b82525050565b600073ffffffffffffffffffffffffffffffffffffffff82169050919050565b6000610a06826109db565b9050919050565b610a16816109fb565b82525050565b60008115159050919050565b610a3181610a1c565b82525050565b600060a082019050610a4c60008301886109cc565b8181036020830152610a5e81876108fa565b9050610a6d60408301866109cc565b610a7a6060830185610a0d565b610a876080830184610a28565b9695505050505050565b600080fd5b600080fd5b7f4e487b7100000000000000000000000000000000000000000000000000000000600052604160045260246000fd5b610ad3826108e9565b810181811067ffffffffffffffff82111715610af257610af1610a9b565b5b80604052505050565b6000610b05610955565b9050610b118282610aca565b919050565b600067ffffffffffffffff821115610b3157610b30610a9b565b5b610b3a826108e9565b9050602081019050919050565b82818337600083830152505050565b6000610b69610b6484610b16565b610afb565b905082815260208101848484011115610b8557610b84610a96565b5b610b90848285610b47565b509392505050565b600082601f830112610bad57610bac610a91565b5b8135610bbd848260208601610b56565b91505092915050565b60008060408385031215610bdd57610bdc61095f565b5b600083013567ffffffffffffffff811115610bfb57610bfa610964565b5b610c0785828601610b98565b9250506020610c188582860161098a565b9150509250929050565b6000602082019050610c3760008301846109cc565b92915050565b7f4e487b7100000000000000000000000000000000000000000000000000000000600052602260045260246000fd5b60006002820490506001821680610c8457607f821691505b602082108103610c9757610c96610c3d565b5b50919050565b7f56616c7565206973206e6f7420657175616c20746f2070726963650000000000600082015250565b6000610cd3601b836108a5565b9150610cde82610c9d565b602082019050919050565b60006020820190508181036000830152610d0281610cc6565b9050919050565b7f4f776e65722063616e6e6f7420627579207468652070726f6475637400000000600082015250565b6000610d3f601c836108a5565b9150610d4a82610d09565b602082019050919050565b60006020820190508181036000830152610d6e81610d32565b9050919050565b7f50726f6475637420697320616c72656164792070757263686173656400000000600082015250565b6000610dab601c836108a5565b9150610db682610d75565b602082019050919050565b60006020820190508181036000830152610dda81610d9e565b9050919050565b7f4e487b7100000000000000000000000000000000000000000000000000000000600052601160045260246000fd5b6000610e1b82610969565b91507fffffffffffffffffffffffffffffffffffffffffffffffffffffffffffffffff8203610e4d57610e4c610de1565b5b600182019050919050565b6000819050919050565b6000610e7d610e78610e73846109db565b610e58565b6109db565b9050919050565b6000610e8f82610e62565b9050919050565b6000610ea182610e84565b9050919050565b610eb181610e96565b82525050565b600060a082019050610ecc60008301886109cc565b8181036020830152610ede81876108fa565b9050610eed60408301866109cc565b610efa6060830185610ea8565b610f076080830184610a28565b969550505050505056fea264697066735822122059794f80447a77e20a7272dc957c08e73b6c7bbad875f60ac1832a7cf23ea0fd64736f6c634300080d0033",
  "immutableReferences": {},
  "source": "//SPDX-License-Identifier: UNLICENSED\r\npragma solidity ^0.8.13;\r\n\r\ncontract Marketplace {\r\n    struct Product {\r\n        uint256 id;\r\n        string name;\r\n        uint256 price;\r\n        address payable owner;\r\n        bool purchased;\r\n    }\r\n\r\n    mapping(uint256 => Product) public products; // mapping will behave like a database\r\n    uint256 public productsCount = 0;\r\n    string public name;\r\n\r\n    constructor() {\r\n        name = \"Lakshya's Marketplace\";\r\n    }\r\n\r\n    event ProductCreated(\r\n        uint256 id,\r\n        string name,\r\n        uint256 price,\r\n        address owner,\r\n        bool purchased\r\n    );\r\n\r\n    event ProductPurchased(\r\n        uint256 id,\r\n        string name,\r\n        uint256 price,\r\n        address payable owner,\r\n        bool purchased\r\n    );\r\n\r\n    function buyProduct(uint256 _id) public payable {\r\n        Product memory productToBuy = products[_id];\r\n        address payable seller = productToBuy.owner;\r\n\r\n        require(_id > 0 && _id <= productsCount);\r\n\r\n        require(msg.value >= productToBuy.price, \"Value is not equal to price\");\r\n        require(payable(msg.sender) != seller, \"Owner cannot buy the product\");\r\n\r\n        require(!productToBuy.purchased, \"Product is already purchased\");\r\n\r\n        productToBuy.owner = payable(msg.sender);\r\n        productToBuy.purchased = true;\r\n\r\n        products[_id] = productToBuy; // IMPORTANT!! You need to update the product in mapping\r\n\r\n        seller.transfer(msg.value);\r\n\r\n        emit ProductPurchased(\r\n            productsCount,\r\n            productToBuy.name,\r\n            productToBuy.price,\r\n            payable(msg.sender),\r\n            true\r\n        );\r\n    }\r\n\r\n    function registerProduct(string memory _name, uint256 _price) public {\r\n        require(bytes(_name).length > 0);\r\n        require(_price > 0);\r\n        productsCount++;\r\n\r\n        products[productsCount] = Product(\r\n            productsCount,\r\n            _name,\r\n            _price,\r\n            payable(msg.sender),\r\n            false\r\n        );\r\n\r\n        emit ProductCreated(\r\n            productsCount,\r\n            _name,\r\n            _price,\r\n            payable(msg.sender),\r\n            false\r\n        );\r\n    }\r\n}\r\n",
  "sourcePath": "C:\\Users\\laksh\\Desktop\\Blockchain\\marketplace\\src\\contracts\\Marketplace.sol",
  "compiler": {
    "name": "solc",
    "version": "0.8.13+commit.abaa5c0e.Emscripten.clang"
  },
  "schemaVersion": "3.4.7",
  "updatedAt": "2022-04-26T16:03:21.878Z",
  "networkType": "ethereum",
  "devdoc": {
    "kind": "dev",
    "methods": {},
    "version": 1
  },
  "userdoc": {
    "kind": "user",
    "methods": {},
    "version": 1
  }
}