{
    "contractName": "Marketplace",
    "abi": [
        {
            "inputs": [],
            "stateMutability": "nonpayable",
            "type": "constructor"
        },
        {
            "anonymous": false,
            "inputs": [
                {
                    "indexed": false,
                    "internalType": "uint256",
                    "name": "id",
                    "type": "uint256"
                },
                {
                    "indexed": false,
                    "internalType": "string",
                    "name": "name",
                    "type": "string"
                },
                {
                    "indexed": false,
                    "internalType": "uint256",
                    "name": "price",
                    "type": "uint256"
                },
                {
                    "indexed": false,
                    "internalType": "address",
                    "name": "owner",
                    "type": "address"
                },
                {
                    "indexed": false,
                    "internalType": "bool",
                    "name": "purchased",
                    "type": "bool"
                }
            ],
            "name": "ProductCreated",
            "type": "event"
        },
        {
            "anonymous": false,
            "inputs": [
                {
                    "indexed": false,
                    "internalType": "uint256",
                    "name": "id",
                    "type": "uint256"
                }
            ],
            "name": "ProductPurchased",
            "type": "event"
        },
        {
            "inputs": [
                {
                    "internalType": "uint256",
                    "name": "_id",
                    "type": "uint256"
                }
            ],
            "name": "buyProduct",
            "outputs": [],
            "stateMutability": "payable",
            "type": "function"
        },
        {
            "inputs": [],
            "name": "name",
            "outputs": [
                {
                    "internalType": "string",
                    "name": "",
                    "type": "string"
                }
            ],
            "stateMutability": "view",
            "type": "function"
        },
        {
            "inputs": [
                {
                    "internalType": "uint256",
                    "name": "",
                    "type": "uint256"
                }
            ],
            "name": "products",
            "outputs": [
                {
                    "internalType": "uint256",
                    "name": "id",
                    "type": "uint256"
                },
                {
                    "internalType": "string",
                    "name": "name",
                    "type": "string"
                },
                {
                    "internalType": "uint256",
                    "name": "price",
                    "type": "uint256"
                },
                {
                    "internalType": "address payable",
                    "name": "owner",
                    "type": "address"
                },
                {
                    "internalType": "bool",
                    "name": "purchased",
                    "type": "bool"
                }
            ],
            "stateMutability": "view",
            "type": "function"
        },
        {
            "inputs": [],
            "name": "productsCount",
            "outputs": [
                {
                    "internalType": "uint256",
                    "name": "",
                    "type": "uint256"
                }
            ],
            "stateMutability": "view",
            "type": "function"
        },
        {
            "inputs": [
                {
                    "internalType": "string",
                    "name": "_name",
                    "type": "string"
                },
                {
                    "internalType": "uint256",
                    "name": "_price",
                    "type": "uint256"
                }
            ],
            "name": "registerProduct",
            "outputs": [],
            "stateMutability": "nonpayable",
            "type": "function"
        }
    ],
    "bytecode": "6080604052600060015534801561001557600080fd5b506040805180820190915260158082527f4c616b736879612773204d61726b6574706c6163650000000000000000000000602090920191825261005a91600291610060565b50610133565b82805461006c906100f9565b90600052602060002090601f01602090048101928261008e57600085556100d4565b82601f106100a757805160ff19168380011785556100d4565b828001600101855582156100d4579182015b828111156100d45782518255916020019190600101906100b9565b506100e09291506100e4565b5090565b5b808211156100e057600081556001016100e5565b600181811c9082168061010d57607f821691505b60208210810361012d57634e487b7160e01b600052602260045260246000fd5b50919050565b610828806101426000396000f3fe60806040526004361061004a5760003560e01c806306fdde031461004f5780637acc0b201461007a5780638642269e146100ab5780638c96091b146100c0578063e0df7bb6146100e0575b600080fd5b34801561005b57600080fd5b50610064610104565b6040516100719190610652565b60405180910390f35b34801561008657600080fd5b5061009a61009536600461066c565b610192565b604051610071959493929190610685565b6100be6100b936600461066c565b610258565b005b3480156100cc57600080fd5b506100be6100db3660046106dc565b61045c565b3480156100ec57600080fd5b506100f660015481565b604051908152602001610071565b6002805461011190610791565b80601f016020809104026020016040519081016040528092919081815260200182805461013d90610791565b801561018a5780601f1061015f5761010080835404028352916020019161018a565b820191906000526020600020905b81548152906001019060200180831161016d57829003601f168201915b505050505081565b600060208190529081526040902080546001820180549192916101b490610791565b80601f01602080910402602001604051908101604052809291908181526020018280546101e090610791565b801561022d5780601f106102025761010080835404028352916020019161022d565b820191906000526020600020905b81548152906001019060200180831161021057829003601f168201915b5050505060028301546003909301549192916001600160a01b0381169150600160a01b900460ff1685565b60008060008381526020019081526020016000206040518060a00160405290816000820154815260200160018201805461029190610791565b80601f01602080910402602001604051908101604052809291908181526020018280546102bd90610791565b801561030a5780601f106102df5761010080835404028352916020019161030a565b820191906000526020600020905b8154815290600101906020018083116102ed57829003601f168201915b50505091835250506002828101546020808401919091526003909301546001600160a01b038116604080850191909152600160a01b90910460ff1615156060909301929092526000868152928390529120015490915034116103b35760405162461bcd60e51b815260206004820152601e60248201527f56616c7565206973206e6f742073756666696369656e7420746f20627579000060448201526064015b60405180910390fd5b60608101516001600160a01b0316330361040f5760405162461bcd60e51b815260206004820152601c60248201527f4f776e65722063616e6e6f7420627579207468652070726f647563740000000060448201526064016103aa565b60608101516040516001600160a01b03909116903480156108fc02916000818181858888f1935050505015801561044a573d6000803e3d6000fd5b50600160808201523360609091015250565b600082511161046a57600080fd5b6000811161047757600080fd5b60018054906000610487836107cb565b90915550506040805160a0810182526001805480835260208084018781528486018790523360608601526000608086018190529283528282529490912083518155935180519394936104e093850192919091019061056c565b5060408281015160028301556060830151600390920180546080909401511515600160a01b026001600160a81b03199094166001600160a01b039093169290921792909217905560015490517fbc59c0c8165864dcceb377dd07d8f431d4303f8e501cb0a0374a10cc68d718369161056091859085903390600090610685565b60405180910390a15050565b82805461057890610791565b90600052602060002090601f01602090048101928261059a57600085556105e0565b82601f106105b357805160ff19168380011785556105e0565b828001600101855582156105e0579182015b828111156105e05782518255916020019190600101906105c5565b506105ec9291506105f0565b5090565b5b808211156105ec57600081556001016105f1565b6000815180845260005b8181101561062b5760208185018101518683018201520161060f565b8181111561063d576000602083870101525b50601f01601f19169290920160200192915050565b6020815260006106656020830184610605565b9392505050565b60006020828403121561067e57600080fd5b5035919050565b85815260a06020820152600061069e60a0830187610605565b6040830195909552506001600160a01b03929092166060830152151560809091015292915050565b634e487b7160e01b600052604160045260246000fd5b600080604083850312156106ef57600080fd5b823567ffffffffffffffff8082111561070757600080fd5b818501915085601f83011261071b57600080fd5b81358181111561072d5761072d6106c6565b604051601f8201601f19908116603f01168101908382118183101715610755576107556106c6565b8160405282815288602084870101111561076e57600080fd5b826020860160208301376000602093820184015298969091013596505050505050565b600181811c908216806107a557607f821691505b6020821081036107c557634e487b7160e01b600052602260045260246000fd5b50919050565b6000600182016107eb57634e487b7160e01b600052601160045260246000fd5b506001019056fea26469706673582212208659412071b15736d2507755395690236293c25aaf7e51092357220d82edcc2364736f6c634300080d0033",
    "sourcePath": "c:/Users/laksh/Desktop/Blockchain/marketplace/src/contracts/Marketplace.sol",
    "compiler": {
        "name": "solc",
        "version": "0.8.13+commit.abaa5c0e"
    },
    "functionHashes": {
        "buyProduct(uint256)": "8642269e",
        "name()": "06fdde03",
        "products(uint256)": "7acc0b20",
        "productsCount()": "e0df7bb6",
        "registerProduct(string,uint256)": "8c96091b"
    },
    "gasEstimates": {
        "creation": {
            "codeDepositCost": "417600",
            "executionCost": "infinite",
            "totalCost": "infinite"
        },
        "external": {
            "buyProduct(uint256)": "infinite",
            "name()": "infinite",
            "products(uint256)": "infinite",
            "productsCount()": "2361",
            "registerProduct(string,uint256)": "infinite"
        }
    }
}